:020000040800F2
:1000000050EA0020290300082B5E0008A54F0008D5
:10001000295E00084D0E000871A1000800000000D4
:10002000000000000000000000000000690200085D
:100030009918000800000000C5020008E9760008D1
:100040004303000843030008430300084303000878
:1000500043030008430300089B18000843030008FB
:1000600043030008A1180008A7180008430300086C
:10007000B1140008430300084303000843030008C9
:100080004303000843030008430300084303000838
:10009000510E00084303000843030008AD18000890
:1000A0004303000843030008430300084303000818
:1000B000B97700084303000843030008430300081E
:1000C00043030008430300084303000843030008F8
:1000D0004303000843030008430300084D7C000865
:1000E00043030008430300084303000843030008D8
:1000F00043030008C57700084303000843030008D2
:1001000043030008430300084303000843030008B7
:1001100043030008430300084303000843030008A7
:1001200043030008BD140008C91400088D17000817
:100130004303000843030008430300084303000887
:100140005D0E000843030008430300082D5E00080D
:10015000430300089917000843030008097D0008BD
:100160004303000843030008430300084303000857
:100170004303000843030008430300080000000095
:10018000430300084303000800F002F800F05CF8A5
:100190000AA090E8000C82448344AAF10107DA45E2
:1001A00001D100F051F8AFF2090EBAE80F0013F0D8
:1001B000010F18BFFB1A43F00103184724F1000098
:1001C00044F100000A444FF0000C10F8013B13F01A
:1001D000070408BF10F8014B1D1108BF10F8015BA0
:1001E000641E05D010F8016B641E01F8016BF9D193
:1001F00013F0080F1EBF10F8014BAD1C0C1B09D1EA
:100200006D1E58BF01F801CBFAD505E014F8016B5B
:1002100001F8016B6D1EF9D59142D6D370470000ED
:100220000023002400250026103A28BF78C1FBD8FF
:10023000520728BF30C148BF0B6070471FB50EF092
:1002400098F91FBD10B510BD00F003FA1146FFF775
:10025000F5FF0BF043FB00F021FA03B4FFF7F2FFC8
:1002600003BC00F025FA00002C4B19680868B0E8C0
:10027000F04F80F30988BFF36F8F4FF0000080F3D9
:10028000118870470000000008480068006880F38B
:1002900008884FF0000080F3148862B661B6BFF39F
:1002A0004F8FBFF36F8F00DF00BF00BF08ED00E08E
:1002B000DFF80C00016841F470010160704700BF75
:1002C00088ED00E0EFF30980BFF36F8F134B1A68DE
:1002D0001EF0100F08BF20ED108A20E9F04F1060CB
:1002E00009B44FF0500080F31188BFF34F8FBFF374
:1002F0006F8F0CF0DBFD4FF0000080F3118809BC1C
:1003000019680868B0E8F04F1EF0100F08BFB0EC95
:10031000108A80F30988BFF36F8F7047F4010020C3
:10032000EFF30580704700000948804709480047FF
:10033000FEE7FEE7FEE7FEE7FEE7FEE7FEE7FEE795
:10034000FEE7FEE704480549054A064B70470000F2
:10035000A97700088901000850AA002050EA00206F
:1003600050CA002050CA002053EA020C00F06980F5
:100370002DE9F04B4FF00006002B1FBFB3FA83F5B9
:1003800003FA05F424FA05F65E4012BF1643B2FAEA
:1003900082F502FA05F4C5F120051EBF22FA05FC1C
:1003A00044EA0C04203556EA044C4FEA144418BFC2
:1003B000641C4FF000084FF00009904271EB030CF1
:1003C00039D3002919BFB1FA81F701FA07F6B0FA5B
:1003D00080F700FA07F6C7F120071EBF20FA07FCD6
:1003E00046EA0C062037B6FBF4FCA7EB0507103FE6
:1003F00007F01F0BCBF120060CFA0BFB2CFA06F6CC
:1004000044BFB3460026202FA4BF5E464FF0000B2A
:100410005BEA060C08BF4FF0010B19EB0B09ABFBB5
:10042000027C48EB0608C01B06FB02CC0BFB03CC8E
:1004300071EB0C01C1E70B46024641464846BDE858
:10044000F08B13B54FF000004FF00001AFF30080C8
:10045000BDE81C40704710B5431C02E010F8011BBA
:1004600071B18107FAD14FF0013202C88C1A8C4366
:1004700014EAC211F9D0C01A0A0603D0C01E10BD7A
:10048000C01A10BD0A0401D0801E10BD0902FCD0A4
:10049000401E10BD032A40F2308010F0030C00F023
:1004A000158011F8013BBCF1020F624498BF11F8AE
:1004B00001CB00F8013B38BF11F8013BA2F1040267
:1004C00098BF00F801CB38BF00F8013B11F00303DF
:1004D00000F02580083AC0F0088051F8043B083A43
:1004E00051F804CBA0E80810F5E7121D5CBF51F8E5
:1004F000043B40F8043BAFF30080D20724BF11F85F
:10050000013B11F801CB48BF11F8012B24BF00F8C3
:10051000013B00F801CB48BF00F8012B704710B534
:10052000203AC0F00B80B1E81850203AA0E81850EB
:10053000B1E81850A0E81850BFF4F5AF5FEA027CAC
:1005400024BFB1E81850A0E8185044BF18C918C01B
:10055000BDE810405FEA827C24BF51F8043B40F8BC
:10056000043B08BF7047D20728BF31F8023B48BFA1
:1005700011F8012B28BF20F8023B48BF00F8012BDF
:10058000704702F0FF0343EA032242EA024200F00E
:1005900002B84FF000020429C0F0128010F0030CE2
:1005A00000F01B80CCF1040CBCF1020F18BF00F866
:1005B000012BA8BF20F8022BA1EB0C0100F00DB815
:1005C0005FEAC17C24BF00F8012B00F8012B48BF73
:1005D00000F8012B70474FF0000200B51346944617
:1005E0009646203922BFA0E80C50A0E80C50B1F18B
:1005F0002001BFF4F7AF090728BFA0E80C5048BF9F
:100600000CC05DF804EB890028BF40F8042B08BF3C
:10061000704748BF20F8022B11F0804F18BF00F838
:10062000012B704770477047704710B500F00CF809
:10063000006810BD10B5044600F006F8046010BD57
:1006400000487047F0A9002000487047F0A900203A
:1006500070477546FFF7F4FFAE46050069465346FE
:1006600020F00700854618B020B5FFF76BFEBDE807
:1006700020404FF000064FF000074FF000084FF009
:10068000000B21F00701AC46ACE8C009ACE8C0099A
:10069000ACE8C009ACE8C0098D46704710B5044607
:1006A000AFF300802046BDE81040FFF7D6BD000044
:1006B00001491820ABBEFEE72600020009F080BD0C
:1006C00009F014BE0AF00EBAF0EE400AF5EEC00AC8
:1006D000F1EE10FA02DDB0EE600A7047B1EE600A8A
:1006E000FBE70000002803D09FED020A80ED000A1E
:1006F0007047000000000000002803D0B3EE060A97
:1007000080ED000A7047000070B52DED0C8B84B0B1
:1007100006460C4615469FED990AF0EE408A9FED7D
:10072000970AB0EE409A9FED950AF0EE40BA9FED21
:10073000930AF0EE409A9FED910AB0EE40AA0EB1F6
:1007400004B11DB904B0BDEC0C8B70BD8C48FFF733
:10075000C9FF8C48FFF7D0FF8A48D0ED000A9FED13
:100760008A1A60EE810AB0EE600A00F025F9F0EE18
:10077000408A28EEA80AF0EE408A8248D0ED000AAE
:10078000B0EE001A60EE810A9FED7F1A60EE810ADA
:10079000B0EE600A00F010F9B0EE409A29EE090AB6
:1007A000B0EE409ADFED790AB7EE000A00EEA80A33
:1007B000DFED770A00EEC90ADFED760A20EE200AA7
:1007C000754880ED000A6E4890ED000ADFED730A6F
:1007D00080EE201AB7EE000A31EE000A20EE000A81
:1007E0006D48D0ED000A80EE801A6D4880ED001A49
:1007F00094ED000AB5EEC00AF1EE10FA0DD194EDB9
:10080000010AB5EEC00AF1EE10FA06D194ED020A23
:10081000B5EEC00AF1EE10FA46D09FED580AB0EEE0
:10082000408A0020019002900390D4ED000A60EE0F
:10083000A00A94ED011AD4ED011A41EE210A94EDBB
:10084000021AD4ED021A41EE210AB0EE600A00F05D
:10085000A9F8B0EE408A94ED000A20EE080A8DED6A
:10086000010A94ED010A20EE080A8DED020A94EDCA
:10087000020A20EE080A8DED030ADDED010AF1EE11
:10088000600AB0EE600AFFF719FFF0EE409A9DEDA6
:10089000031AF0EE410A9DED021AB0EE410AFFF78D
:1008A0000FFFB0EE40AA07E09FED340AF0EE409A49
:1008B0009FED320AB0EE40AA95ED000AB5EEC00AEF
:1008C000F1EE10FA0DD195ED010AB5EEC00AF1EE88
:1008D00010FA06D195ED020AB5EEC00AF1EE10FA53
:1008E0003CD0B0EE690A00F067F8B0EE408AB0EE96
:1008F000690AFFF7E7FEB0EE40DAB0EE4A0A00F010
:100900005BF8F0EE40AAB0EE4A0AFFF7DBFEB0EE6D
:1009100040BA28EE2A0AD5ED010A20EE200AD5EDCC
:10092000000A0DEE200A68EE0B0A95ED021A00EEA1
:10093000810AB0EE40CA95ED010A20EE0B0AD5ED12
:10094000020A0AEEE00AF0EE40CAF0EE6C0AB0EEDF
:100950004C0AFFF7B5FEF0EE40BA03E09FED070A40
:10096000F0EE40BAB0EE4A1AF0EE690AB0EE6B0A49
:1009700030460AF001F800BFE4E600000000000085
:10098000840300208803002035FA8E3CC1BFAD3BB4
:100990009DF8C5362F7C1C418C030020506CC24A48
:1009A0009003002010B509F006FEB7EE001AC1EE64
:1009B000000AB0EE600A10BD0AF0D6B82DE9F04189
:1009C0002DED028B9AB00546B0EE408A0E461746D2
:1009D0009846002017901890199014901590169032
:1009E0004DB146B13FB1B8F1000F04D0B5EEC08AA9
:1009F000F1EE10FA05D100201AB0BDEC028BBDE873
:100A0000F08196ED000A8DED170A96ED010A8DED45
:100A1000180A96ED020A8DED190A97ED000A8DED80
:100A2000140A97ED010A8DED150A97ED020A8DED76
:100A3000160A17AA14A9284609F0F0FD402104A8B7
:100A4000FFF7C9FD00200090019002900390002460
:100A500017A904A80BF036FF00BF30E004A800EB94
:100A6000041090ED000AD5ED000A20EE200A04A83B
:100A700000EB0410D0ED010A95ED011A00EE810A99
:100A800004A800EB0410D0ED020A95ED021A00EE66
:100A9000810A04A800EB0410D0ED030A95ED031AB7
:100AA00000EE810A20EE080AF0EE000A80EE201A1D
:100AB000684600EB840080ED001A601CC4B2042C70
:100AC000CCDB002410E005EB840090ED000A6846C2
:100AD00000EB8400D0ED000A30EE200A05EB840024
:100AE00080ED000A601CC4B2042CECDB28460BF03D
:100AF000C7FC012080E7000001221021014802F01C
:100B000067B800000000024000221021014802F0F6
:100B10005FB800000000024070470000012211464B
:100B2000014802F055B800000004024000220121F3
:100B3000014802F04DB800000004024030B543788F
:100B400004781B021BB2234300EE103A194CB8EE96
:100B5000C00AD4ED000A20EE200A81ED000AC37815
:100B600085781B021BB22B4300EE103AD4ED000A2D
:100B7000B8EEC00A20EE200A81ED010A437904791B
:100B80001B021BB2234300EE103AB8EEC00A20EE5F
:100B9000200ADFED090A81ED020AD0F8060020F0F4
:100BA0007F4000EE100AB8EE400A20EE200A82EDE7
:100BB000000A30BD3001002000401C4270470AF09E
:100BC00023BF0AF019BB000010B542780378120267
:100BD00012B21A4300EE102A124BB8EEC00AD3ED3F
:100BE000010A20EE200A81ED000AC2788478120200
:100BF00012B2224300EE102AD3ED010AB8EEC00A69
:100C000020EE200A81ED010A42790079120212B227
:100C1000024300EE102AB8EEC00A20EE200A81ED51
:100C2000020A10BD3001002010B5FFF775FFFFF775
:100C3000C5FF0AF06DF808B1802402E009F0D4FF86
:100C400004460AF033FA10B144F0400010BD0AF037
:100C5000BFF9204310BD00002DE9FC4107460020EC
:100C600016460D4600900190FFF74EFF922000F0CF
:100C7000BDF806226946122000F09AF8FFF73CFF03
:100C80009DF801009DF80010000200B2084300EE3C
:100C9000100A464CB8EEC00AD4ED000A20EE200A35
:100CA00085ED000A9DF803009DF80210000200B2D5
:100CB000084300EE100AD4ED000AB8EEC00A20EE98
:100CC000200A85ED010A9DF805009DF80410000238
:100CD00000B2084300EE100AB8EEC00A20EE200A67
:100CE00085ED020AFFF722FF08226946002000F086
:100CF0005FF8FFF713FF9DF800000F2830D19DF833
:100D000003009DF80210000200B2084300EE100A32
:100D1000D4ED010AB8EEC00A20EE200A87ED000AE1
:100D20009DF805009DF80410000200B2084300EE93
:100D3000100AD4ED010AB8EEC00A20EE200A87EDB1
:100D4000010A9DF807009DF80610000200B2084352
:100D500000EE100AB8EEC00A20EE200A87ED020A63
:100D6000FFF7D2FEA22000F041F8022269462220BD
:100D700000F01EF8FFF7C0FE9DF800009DF801107E
:100D8000C00040EA5110B0F5806F01DBA0F50060B3
:100D900000EE100AB4EE001AF8EEC00AB3EE070A2D
:100DA00000EE810A86ED000ABDE8FC8130010020DA
:100DB00070B514460D4640F0800000F017F806E0CC
:100DC000552000F013F8641E05F8010BE4B2002C66
:100DD000F6D170BD10B50C4640F0800000F006F86A
:100DE000552000F003F8207010BD000001B582B05E
:100DF0004FF47A700090012301AA02A9024803F07F
:100E000081FA9DF804000EBDBC27002002784078CE
:100E1000D20042EA5010B0F5806F01DBA0F500600F
:100E200000EE100AB4EE001AF8EEC00AB3EE070A9C
:100E300000EE810A81ED000A704710B50C46FFF7FD
:100E4000D5FF2046BDE81040FFF7D0BFFEE7000009
:100E5000014801F0A2B8000018270020014801F065
:100E60009CB800004027002038B50E4C4FF40075A8
:100E700025600025A560E560082525610A4C050A66
:100E800025706070080AA070E170100A207162710C
:100E9000180AA071E3716B4622460249034800F02C
:100EA0001DFF38BD94070020CC0000204027002003
:100EB00000B589B00C20B3EE021AFBEE020A0AF06C
:100EC0007CFA40F2FF210091002108220291CDE935
:100ED00003128DF81C1006918DF81D10010A8DF873
:100EE0001E108DF81F0008AB06AA6946024800F0E4
:100EF000F5FE09B000BD00001827002000B589B03C
:100F00000C20B3EE021AFBEE020A0AF056FA4FF476
:100F100040710091002108220291CDE903128DF861
:100F20001C1006918DF81D10010A8DF81E108DF809
:100F30001F0008AB06AA6946024800F0CFFE09B0C0
:100F400000BD00001827002038B50E4C40F2FF15F8
:100F500025600025A560E560082525610A4C050A85
:100F600025706070080AA070E170100A207162712B
:100F7000180AA071E3716B4622460249034800F04B
:100F8000ADFE38BD201C0020F400002040270020CA
:100F900038B50E4C4FF4007525600025A560E5605E
:100FA000082525610A4C050A25706070080AA070A2
:100FB000E170100A20716271180AA071E3716B462A
:100FC00022460249034800F089FE38BD5809002036
:100FD000DC00002018270020002070470020704708
:100FE00010B500220449054807F007F804490348F2
:100FF00006F0F9FF002010BD683F0020702C002093
:101000006837002010B504460146094806F0EBFF9A
:101010002078A32806D107482168016061684160F3
:1010200021890181024806F0BDFF002010BD0000AB
:10103000702C0020FE0F002000207047094A10B5D8
:10104000D2F8BC22D2F814220AB1012010BD0A46FF
:101050000146044806F0D1FFBDE81040014807F002
:1010600055B80000702C00201FB53048017830487A
:1010700002783048914231D12F499FED312AB1F9A0
:10108000062000EE102AB1F90420F8EEC00A9FED08
:101090002B0A80EE801A00EE902AB1F90020097D1B
:1010A000F8EEE01AC906C1EE800A00EE102AF8EE4A
:1010B000C01A81EE820A0CD5F1EE041A21EE211A33
:1010C00060EEA10A80ED001AC0ED010A20EE210AAF
:1010D0000EE080ED001AC0ED010A09E0194A12780D
:1010E000914207D19FED180A80ED000A80ED010AB8
:1010F00080ED020A90EC030A684600F0BBF8134A40
:101100000020694601EB800393ED000AC0EBC003A9
:1011100003EB430302EB8303401CC0B283ED010ADF
:101120000428EFD300F06CF81FBD0000010100207F
:1011300002010020FC080020AC1F00200000254414
:10114000000025C40301002000000000AC070020BF
:101150000F499FED100A104A002000BF00EB8003EA
:1011600001EB4303B3F9023000EE903AC0EBC00349
:1011700003EB4303F8EEE00A02EB8303401CC0B22A
:1011800060EE800A0428C3ED000AE7D37047000030
:101190009403002094C9D33AAC07002070B5002412
:1011A0002DED048B26469FED118A114DDFED118A3E
:1011B0009FED119AC4EBC40000EB400005EB8000EA
:1011C000F0EE680A80ED008A80ED018A0681B0EEBB
:1011D000490A0A4A00210C3004F07AFF641CE4B288
:1011E000042CE7D3BDEC048B70BD000000000000B0
:1011F000AC0700200000FA4400007A4694E500089D
:1012000070B50D4E002500BFC5EBC50000EB4000DA
:1012100006EB800404F10C0094EC020A04F0C4FE16
:1012200094ED0B0A6D1CEDB2BDEEC00A042D10EE5C
:10123000100A2081E8D370BDAC070020FFF7AEFF95
:10124000C8200BF017FD0A4CFFF782FF04F09EFF49
:10125000FFF70AFFB4F90431B4F9B020B4F95C1017
:10126000B4F90800FFF700FE02200BF003FDEBE7E6
:10127000AC07002010B504462DED108BB0EE418A6E
:10128000F0EE608AB0EE409A18EE100A0DF000F908
:101290009FED81AB53EC1A2B0CF046FE41EC1D0B7D
:1012A0009FED7FFBB0EE4F0AF0EE6F0A09F046F9B2
:1012B000B0EE40BAF0EE60BA18EE900A0DF0E8F821
:1012C00053EC1B2B0CF030FE41EC1C0BB0EE4F0A24
:1012D000F0EE6F0A09F032F9F1EE499AB0EE40BA39
:1012E000F0EE60BA19EE900A0DF0D2F853EC1B2B19
:1012F0000CF01AFE53EC1C2B0CF0E0FF53EC1D2BF2
:101300000CF012FC9FED68BB53EC1B2B0CF0B4FCF3
:101310000CF0D8FB206018EE100A0DF0B9F853EC71
:101320001A2B0CF001FE41EC1E0BB0EE4F0AF0EE52
:101330006F0A09F003F9B0EE40CAF0EE60CA18EE89
:10134000900A0DF0A5F853EC1C2B0CF0EDFD41ECD0
:101350001D0BB0EE4F0AF0EE6F0A09F0EFF8B0EE99
:1013600040CAF0EE60CA19EE100A0DF091F853EC85
:101370001C2B0CF0D9FD53EC1D2B0CF09FFF53ECF4
:101380001E2B0CF0D1FB53EC1B2B0CF075FC0CF05E
:1013900099FB606018EE100A0DF07AF853EC1A2BE6
:1013A0000CF0C2FD41EC1E0BB0EE4F0AF0EE6F0ADE
:1013B00009F0C4F8B0EE40CAF0EE60CA18EE900A28
:1013C0000DF066F853EC1C2B0CF0AEFD41EC1D0B40
:1013D000B0EE4F0AF0EE6F0A09F0B0F8B0EE40CA76
:1013E000F0EE60CA19EE100A0DF052F853EC1C2B07
:1013F0000CF09AFD53EC1D2B0CF096FB53EC1E2BBE
:101400000CF092FB53EC1B2B0CF036FC0CF05AFB4F
:10141000A06018EE100A0DF03BF853EC1A2B0CF0FC
:1014200083FD41EC1A0BB0EE4F0AF0EE6F0A09F0A3
:1014300085F8B0EE40CAF0EE60CA18EE900A0DF0E2
:1014400027F853EC1C2B0CF06FFD41EC180BB0EEA1
:101450004F0AF0EE6F0A09F071F8B0EE40CAF0EEF4
:1014600060CA19EE900A0DF013F853EC1C2B0CF027
:101470005BFD53EC182B0CF057FB53EC1A2B0CF0C4
:1014800053FB53EC1B2B0CF0F7FB0CF01BFBE06049
:10149000BDEC108B10BD00009A9999999999D93F8C
:1014A00000000000000000400E4FAF946588B3BFFD
:1014B000014801F0EFB80000502B0020014801F076
:1014C000E9B80000B02B00202DE9F05FA748A84B39
:1014D000A84CC06CA64DA74EA54F0068A449DFF8E4
:1014E0009492DFF88CA2DFF88CB2DFF884E2A14A94
:1014F000483B603418351836303F09F178090AF155
:10150000300A4FF4006C0BF1300BAEF1180E88422C
:1015100023D99749543926E0A84233D14FF0200807
:101520000AE0504535D1E04606E000BF4FF4001810
:1015300002E000BF4FF0006811EA080F7CD08C4930
:10154000884253D9904205D0984203D0A04201D09E
:10155000A8422FD14FF0200C45E08649A83188429F
:1015600003D983495839096805E0824948318842DE
:101570008149F8D949689042D0D09842CED0A04253
:10158000CCD0C9E7B042CED0B842CCD04845CAD0C2
:10159000C7E75845CAD07045C8D0DFF8D88108F1F0
:1015A00090084045C2D0DFF8C88108F1480840459E
:1015B000C0D1BBE7B04216D0B84214D0484512D0D3
:1015C000504510D0584509D0704507D06949903131
:1015D000884203D066494831884202D14FF4001C4A
:1015E00001E04FF0006C62484C382AE06149A831B4
:1015F000884229D9904205D0984203D0A04201D018
:10160000A84202D14FF0200C19E0B04217D0B842E6
:1016100015D0484513D0504511D0584509D07045D4
:1016200007D054499031884203D05149483188420B
:1016300003D14FF4001C02E095E04FF0006C4C48E1
:101640005038C0F800C052E04A494831884227D992
:10165000904205D0984203D0A04201D0A84202D1C6
:101660004FF0200C18E0B04216D0B84214D04845D4
:1016700012D0504510D0584509D0704507D03D498B
:101680009031884203D03A494831884202D14FF420
:10169000001C01E04FF0006C3748C0F80CC026E099
:1016A000904205D0984203D0A04201D0A84202D176
:1016B0004FF0200C18E0B04216D0B84214D0484584
:1016C00012D0504510D0584509D0704507D029494F
:1016D0009031884203D026494831884202D14FF4E4
:1016E000001C01E04FF0006C2348C0F808C0234CF8
:1016F000207880070CD5207820F002002070207818
:1017000040F004002070012211461D4801F060FAEB
:1017100060781C4D80070CD5607820F00200607066
:10172000607840F00400607001221021284601F02A
:101730004FFAA07880070CD5A07820F00200A070A6
:10174000A07840F00400A07001221021284601F08A
:101750003FFA09F04DFF2078400704D50A48016898
:1017600041F001010160BDE8F09F0000BC270020AE
:1017700058640240106002400060024024000020D3
:101780000004024000000240103C0140014800F00B
:1017900081BF000074280020014800F07BBF0000DA
:1017A000102C002001681823CAB2103AB2FBF3F2E1
:1017B000054B6FF30901032A9B5CC36500D9091D22
:1017C000816508467047000048EA000810B50146E8
:1017D00000208B698A6A4FF0C07453B1B3F5005F83
:1017E00015D072B1012A0CD0022A0AD0032A09D1DD
:1017F00004E01AB1012A06D0022A03D1C96AC9013C
:1018000000D5012010BDC96AA142FAD010BD002A3E
:10181000F7D0012AF2D0022AF3D0032AF3D010BD68
:1018200000B589B040F2FF200090002001900290A6
:101830000390082006A10490D1E90001CDE906013A
:1018400008AB06AA6946044800F048FA09B000BD92
:10185000FFFFFFFFFFFFFFFC1827002000B589B046
:101860004FF44070009000200190029003900820F7
:1018700006A10490D1E90001CDE9060108AB06AA52
:101880006946044800F02AFA09B000BDFFFFFFFFD7
:10189000FFFFFFFC182700207047012001F08CB8E3
:1018A000082001F089B8102001F086B8202001F04E
:1018B00083B872B6FEE7000010B529482949002216
:1018C00000780B78284998420DD1002000EBC00326
:1018D000C3EB801301EBC303401CC0B2A3F84C2040
:1018E0000228F3D310BD214B1B78984228D1204801
:1018F000B0F9020000F10A02152A19D300EE100A0D
:10190000DFED1C0AB8EEC00A80EE201A91ED100A35
:1019100030EE410A81ED100A00EE100AB8EEC00A5E
:1019200080EE201A91ED7E0A31EE000A81ED7E0AEA
:10193000002000F03BF9BDE81040012000F036B96E
:101940005FF0000000EBC003C3EB801301EBC303A7
:10195000401CC0B2A3F84C200228F3D310BD0000F5
:101960000101002003010020381C0020020100209A
:10197000AC1F002000404E452DE9F04700214C4BA4
:10198000DFED4C4ADFED4C1A9FED4C5A9FED4C0AAF
:101990004C4FDFF834C1DFF834814D4C4D4A4FF4E1
:1019A000D2698A46B7EE001A01EBC100C0EB811084
:1019B00004EBC00001EB8105D0ED073A03EB4506CF
:1019C000C0ED063AB6F9026000EE906AB8EEE02A81
:1019D000C2EE240A20EEA12A80ED012A33F8155028
:1019E00022EE002A00EE905AB8EE603A00EE905ACD
:1019F00080ED073AF8EE600AD0ED082A60EE850A1D
:101A000060EEA10A42EEA10AC0ED030A20EE804A70
:101A100080ED0C2A80ED0F4A90ED0B2A22EE002A71
:101A200080ED112A3D685668AD1B4D4504D280ED0E
:101A30000F2AC0ED0B0A03E074EE420AC0ED120A51
:101A400073EE630A10EE905A654512DD32EEC12A3C
:101A500080ED082A15786D1E6DB2157015F1130F03
:101A600007DC90ED0E2A32EE412A80ED0E2A82F834
:101A700000A010EE905A454513D9D0ED080A70EE3B
:101A8000810AC0ED080A15786D1C6DB21570132D12
:101A900007DBD0ED0E0A70EE810AC0ED0E0A82F867
:101AA00000A0491CC9B20229FFF47EAFBDE8F0874F
:101AB000BC030020000070420000B4430000003965
:101AC0003694573DEC0100200080BB450080BBC52B
:101AD000381C0020EC00002010B500219FED2D0ADD
:101AE0002D4A0B462DED028B01EBC100C0EB81109E
:101AF00002EBC000491C80ED010A80ED030A80ED75
:101B0000060A80ED070A80ED080A80ED0B0A80EDD9
:101B10000C0A80ED0D0A80ED0F0A80ED100A80EDB1
:101B20000E0A80ED120AC9B2A0F84C300229DBD3AC
:101B300019489FED1A8ADFED1A8A1A4AF0EE480A10
:101B4000B0EE680A0021E03004F0C2FA154A1248EB
:101B5000F0EE480AB0EE680A0C320021503004F072
:101B6000B7FA104AF0EE480AB0EE680A18320021BF
:101B70000D4804F0ADFAF0EE480AB0EE680A094AE2
:101B800009482432BDEC028B0021BDE8104090389A
:101B900004F09EBA00000000381C00200000FA4447
:101BA0000080BB4518E60008D01E002000EBC001F5
:101BB000C1EB801110B50F4800EBC10404F1E00047
:101BC000D4ED100A94ED120A04F0EEF9D4ED400AB7
:101BD00004F15000C4ED0D0A94ED0C0A04F0E4F990
:101BE00094ED1C0ABDEEC00A10EE100AA4F84C00D9
:101BF00010BD0000381C00200E48018800EE101AAD
:101C00000F49F8EE400A9FED0C0A20EE801ADFED36
:101C10000B0A21EE201A81ED0B1A408901EE100A01
:101C2000B8EE411A21EE000A20EE200A81ED790A71
:101C300070470000BC030020000000390000B443DE
:101C4000381C0020FFF748FFFFF7D6FF0A4800685E
:101C50000A4948600A4C00BFFFF78EFEFFF72CFED2
:101C60000023B4F90412B4F94C001A46FFF76CF9DA
:101C700002200AF0FFFFEFE7EC010020EC0000205B
:101C8000381C002070B50A4C0A4DA08AC00404D547
:101C90004FF40051284600F093FFA08A400406D577
:101CA0002846BDE870404FF4804100F089BF70BD08
:101CB000AC1F00200010024090F82020012A07D01D
:101CC000022A05D0416A41F4802141620120704717
:101CD000006842690A43426100207047F0B590F8FD
:101CE00020500468A468012D05D0022D03D0416A5C
:101CF00041F4802153E014F0406F01D1E5004BD551
:101D0000C4F30164022C03D9416A41F4000146E0A6
:101D10000125A5401D608D684FF4C0739DB1CE684C
:101D200035434E6845EAC605066803EB0417F551CE
:101D30004FF4C275076805EB04150E697E51097DE5
:101D4000012905D009E00E88CD6845EA4655EBE744
:101D500001684E5946F480764E511179D2F80550FB
:101D60004FF4C67641EA0525016806EB04168D514D
:101D70001178D2F801204FF4C47541EA02210268BB
:101D800005EB04155151006803EB0411425842F071
:101D9000010242500020F0BD416A41F4001141624D
:101DA0000120F0BD10B590F82020012A07D0022AAA
:101DB00005D0416A41F480214162012010BD3B48B9
:101DC000D0F8002242F00102C0F80022D0F8002230
:101DD00022F47C52C0F80022D0F800224B6A42EA7A
:101DE0000322C0F800220A7D02F01F0301229A405C
:101DF000D0F81C329343C0F81C32CB69B3B9D0F889
:101E00000C329343C0F80C328C894B6864F31F4347
:101E10004C6900EBC404C4F840320C890B6864F3CD
:101E20001F434C6900EBC404C4F84432CB69012B56
:101E300016D1D0F80C321343C0F80C320C884B6822
:101E400064F31F434C6900EBC404C4F840320C89AE
:101E5000CB6864F31F434C6900EBC404C4F84432FC
:101E60008B69002BD0F804320ED01343C0F8043233
:101E70000B69002BD0F8143208D01343C0F8143289
:101E8000096A012904D008E09343EFE79343F5E79B
:101E9000D0F81C121143C0F81C12D0F8001221F027
:101EA0000101C0F80012002010BD000000640040D5
:101EB000704730B590F82040012C05D0022C03D09B
:101EC000416A41F480215DE00468002955D024690D
:101ED000A40754D04FF4D874056804EB01142D59AD
:101EE00015F00405956005682D594ED0ED08556034
:101EF00005682C5904F00204D4604FF4DA740568C4
:101F000004EB01142D5905F00F05156105682D59D5
:101F1000C5F30725956105682C59240C54614FF4CD
:101F2000DC72046802EB0112A4581C700468A45807
:101F3000240A5C700468A458240C9C700468A2589D
:101F4000120EDA704FF4DE72046802EB0112A4582C
:101F50001C710468A458240A5C710468A458240CF9
:101F60009C710468A258120EDA71006881B101698F
:101F700041F020010161002030BDE468A8E7416A1A
:101F800041F400114162012030BD6D0D1560AFE7D5
:101F9000C16841F02001C160EDE72DE9F05F054621
:101FA000006800244669D0F804908768D0F80CB027
:101FB000D0F810A0D0F81880F10748D0F90714D055
:101FC00001218160B80703D5284600F05CFB0CE0D6
:101FD000780702D54FF4006407E0380702D54FF4C4
:101FE000805402E0284600F04DFBF80516D529681C
:101FF0004FF480708860B80503D5284600F045FB93
:102000000CE0780502D544F4005407E0380502D509
:1020100044F4804402E0284600F036FBF80316D56D
:1020200029684FF480308860B80303D5284600F053
:102030002EFB0CE0780302D544F4004407E038039B
:1020400002D544F4803402E0284600F01FFB30073C
:1020500007D55FEACB6004D52968102044F40074EA
:10206000C86070074FF0080707D55FEA0B7004D50A
:102070002868C760284600F099F9B00706D5286897
:10208000C068800702D0284600F092F9700607D594
:102090005FEACA6004D52968102044F480640861AE
:1020A000B00607D55FEA0A7004D52868076128469C
:1020B00000F0B8FAF00606D528680069800702D05B
:1020C000284600F0B0FAB00308D55FEAC96005D52C
:1020D000296810204860284600F0A6FAF00307D5CA
:1020E0005FEA097004D528684760284600F0D0FAF6
:1020F000300446D55FEA497040D5F00504D55FEA63
:10210000C87001D044F00104B00504D55FEA8870BE
:1021100001D544F00204700504D55FEA487001D58A
:1021200044F00404300529D518F0700F26D008F0CB
:102130007000402815D006DC102809D020280AD0CD
:10214000302816D10AE050280ED0602811D10EE0B8
:1021500044F008040DE044F010040AE044F02004C8
:1021600007E044F0400404E044F0800401E044F45B
:1021700080742868816921F07001816129680420D8
:102180004860002C05D0686A204368622846FFF743
:102190008FFEBDE8F09F70B5040003D094F82000D6
:1021A00010B104E0012070BD204600F081F82068E5
:1021B000016841F00101016000F010FD05460526AF
:1021C00004E000F00BFD401B0A2811D8206840688D
:1021D000C007F6D02068016821F00201016000F01C
:1021E000FDFC05460BE000F0F9FC401B0A2806D96F
:1021F000606A40F40030606284F82060D2E72068B2
:1022000040688007EFD4207E0128206801683DD017
:1022100021F080010160607E01282068016838D0CB
:1022200021F040010160A07E01282068016833D0C0
:1022300021F020010160E07E0128206801682ED095
:1022400041F010010160207F01282068016829D039
:1022500021F008010160607F01282068016824D016
:1022600021F004010160D4E902010843D4E9041219
:10227000114308436168491E08432168C861002072
:102280006062012084F82000002070BD41F08001D0
:10229000C0E741F04001C5E741F02001CAE721F065
:1022A0001001CFE741F00801D4E741F00401D9E77C
:1022B000F0B587B0044614216846FEF78CF9364B1A
:1022C0003648DFF8D0E01968D4F800C0334A032557
:1022D0000226092710300024491CF44522D1196038
:1022E000012907D1016841F000710160006800F028
:1022F00000700590106840F0080010601068CDE98B
:10230000005600F00800CDE9047069462448CDE984
:10231000024500F05DFB00220521142000F086FF3D
:10232000142032E0DFF87CE0F44530D1D0F800C072
:102330004CF0806CC0F800C0D0F800C001290CF04F
:10234000806CCDF814C0196007D1016841F00071AC
:102350000160006800F000700590106840F0020015
:102360001060106802AB00F0020005906020CDE91B
:10237000000683E8B00069460B4800F029FB002204
:102380000521402000F052FF402000F041FF07B03F
:10239000F0BD0000006400407C01002030380240A5
:1023A000000C02400068004000040240704700003A
:1023B00030B587B00446954B6A460021FFF779FD9A
:1023C0009348924A84427DD10098B0F5017F7AD03B
:1023D00015DCA0F50070013876D002285FD18D4859
:1023E00001880181118849BA0180518849BA418028
:1023F000918849BA8180917981710820BAE0854B32
:102400002033DFED850A9FED850AA0F54070013885
:1024100047D0012843D1107800F00F011986000938
:102420005886B2F8010040BA00B29886D1780C0103
:10243000117944EA1114DC86547901F00F0144EA61
:102440000121198793ED101A102183ED111A0AF05A
:10245000F0F983ED100AB3F936000C21F3EE0E0A01
:10246000BBEE0E0A0AF0E5F983ED120AB3F9380063
:102470000C21F2EE040ABAEE040A0AF0DAF983ED4E
:10248000130A907900EE100AB8EE400A83ED160A9E
:10249000D07900EE100AB8EE400A83ED170A07B0B3
:1024A00030BD107800F00F01198000095880B2F893
:1024B000010040BA00B29880D1780C01117944EA49
:1024C000111402E059E045E034E0DC80547901F079
:1024D0000F0144EA0121198193ED041A102183EDC3
:1024E000051A0AF0A6F983ED040AB3F906000C21D7
:1024F000F3EE0E0ABBEE0E0A0AF09BF983ED060A14
:10250000B3F908000C21F2EE040ABAEE040A0AF04C
:1025100090F983ED070A907900EE100AB8EE400AB0
:1025200083ED0A0AD07900EE100AB8EE400A83ED76
:102530000B0AB4E73748143001880181118849BA81
:102540000180518849BA4180918849BA8180917946
:102550008171A4E72F480A3001880181118849BAA6
:102560000180518849BA4180918849BA8180917926
:102570008171072008F05AFE91E7294884428ED1E4
:10258000244800991438A1F20121062987D2DFE8F6
:1025900001F021212121031201880181118849BA0A
:1025A0000180518849BA4180918849BA81809179E6
:1025B00081710520DEE741894182118849BA418154
:1025C000518849BA8181918849BAC1819179017450
:1025D0000620CFE7C8B20D490E4B491E00EB800420
:1025E00008703C3B03EB440133F814500D8115880F
:1025F000401C6DBA23F814505388C0B25BBA4B80AC
:1026000093885BBA8B8092798A71B3E709000020C6
:1026100018270020D0030020DC0F4940DC0F49C000
:1026200040270020704770477047000070B504468F
:1026300090F82000012804D0606A40F40020606215
:1026400018E0022084F820002068016821F00101D0
:10265000016000F0C3FA05460EE000BF00F0BEFACC
:10266000401B0A2808D9606A40F4003060620520E7
:1026700084F82000012070BD20684068C007EDD1BB
:10268000606270BD70477047704770477047704711
:10269000704700002DE9F84304464FF00009CDF8DB
:1026A000009063484FF41651A56D0068B0FBF1F738
:1026B0002E6894F85C10082000FA01F131420FD026
:1026C00021680A6852070BD50A6822F004020A60E2
:1026D00094F85C108840A860606D40F0010060656F
:1026E00094F85C104FF0010808FA01F0304208D06D
:1026F00021684969090604D5A860606D40F00200B0
:10270000606594F85C1004208840304208D021684D
:102710000968890704D5A860606D40F00400606511
:1027200094F85C1010208840304218D02168096865
:10273000090714D5A86020680168490304D500681A
:10274000000308D5A16C07E00168C90503D401683E
:1027500021F008010160216C09B12046884794F8F6
:102760005C1020208840304231D021680968C906B9
:102770002DD5A86094F8350005282068016806D09A
:10278000490347D5006800031DD4616C1CE021F0AB
:10279000160101602068416921F080014161206CCF
:1027A00008B9A06C20B12068016821F0080101601F
:1027B00094F85C103F208840A86084F8358084F845
:1027C0003490216D1FE0E16B09B120468847606DB0
:1027D00000282BD0606DC00714D0052084F8350088
:1027E0002068016821F0010101600098401C009000
:1027F000B84203D820680068C007F6D184F8358055
:1028000084F83490E16C002910D001B02046BDE876
:10281000F04308470168C905D5D4016821F01001CB
:10282000016084F8358084F83490CCE7BDE8F88303
:10283000F00100202DE9F041044600F0CFF90646F2
:102840005CB1022084F83500002584F834502068FB
:10285000016821F0010101600DE00120BDE8F08177
:1028600000F0BCF9801B052805D9202060650320F5
:1028700084F83500F2E720680068C007F0D12268CC
:10288000116820480140D4E901031843D4E9033614
:102890003343184363691843A3691843E369184332
:1028A000236A18430843616A042903D1D4E90B134E
:1028B00019430843106020684069666A20F00701E8
:1028C00030460E43012704280CD1A06A0643E06A73
:1028D00040B12046FEF77AFF20B14020606584F8C1
:1028E0003570BAE7206846612046FEF75BFF94F832
:1028F0005C203F2191408160656584F8357000203F
:10290000ACE700003F8010F070B5044600F066F9B7
:102910000546601C02D004480078044400F05EF9CB
:10292000401BA042FAD370BDE401002010B5204C3A
:1029300010281BD0202825D0082831D0012814D1F8
:1029400060710AF0E3FE01280FD004F11001606904
:102950000AF0C6F92069002807D016494FF08050C8
:102960000860BFF34F8FBFF36F8F10BD0A2008F0D0
:102970005DFC607840F001006070A07840F00100DC
:10298000A07006E0092008F051FC207840F001001A
:10299000207020790028E8D0BDE8104008F028BE5B
:1029A0000B2008F043FCE07840F00100E07010BD1F
:1029B0002400002004ED00E0044910B50A6802423A
:1029C00002D00860FFF7B2FF10BD0000143C0140C8
:1029D0002DE9F84FDFF8BCA1002201250AF1040B14
:1029E00003264FF00F090BF1040E00BF0B6805FA28
:1029F00002F42340A34270D10F7907F00307012F9F
:102A000001D0022F16D187684FEA420806FA08FC67
:102A100027EA0C07D1F80CC00CFA08FC4CEA070CAA
:102A2000C0F808C04768A7430C79C4F30014944069
:102A30003C4344600C79E443A4070AD0C4684FEADD
:102A4000420C06FA0CF7BC438F6807FA0CF72743D1
:102A5000C7600C7904F00304022C12D1D40800EBF7
:102A6000840CDCF820405707FF0E09FA07F824EA27
:102A70000804D1F8108008FA07F848EA0408CCF8EE
:102A8000208004684FEA420C06FA0CF7BC430F7929
:102A900007F0030707FA0CF7274307604C6814F4A4
:102AA000403F70D03C4C276847F48047276024683B
:102AB00022F0030704F480440094384C07EB040C24
:102AC000DCF8084897074FEA177809FA08F7BC437B
:102AD000334FB84202D1002724E054E0314FB842CE
:102AE00001D101271EE0304FB84201D1022719E081
:102AF0002E4FB84201D1032714E02D4FB84201D127
:102B000004270FE02B4FB84201D105270AE02A4FD6
:102B1000B84201D1062705E0284FB84201D1072766
:102B200000E0082707FA08F72743CCF80878DAF816
:102B300000405746D1F804C09C435FEACC3C00D526
:102B40001C433C60DBF800405F46D1F804C09C4366
:102B50005FEA8C3C00D51C433C60DEF800407746C1
:102B6000D1F804C09C435FEACC2C00D51C433C60E8
:102B7000084F0C373C68D1F804C09C435FEA8C2CAA
:102B800000D51C433C60521C102AFFF42FAFBDE857
:102B9000F88F0000003C0140443802400030014002
:102BA000000002400004024000080240000C024005
:102BB000001002400014024000180240001C0240B5
:102BC000426921EA02030A4043EA024181617047F7
:102BD0000AB1816170470904FBE700000148806881
:102BE00070470000E401002070B5040025D094F87F
:102BF0003D00002520B984F83C50204600F04CFAF6
:102C0000242084F83D002068016821F00101016062
:102C10002068016841F4004101602068016821F4E6
:102C20000041016001F08AF84D4A6168914201D883
:102C30004C4900E04C49884201D2012070BD4B490B
:102C40002368B0FBF1F15E6826F03F060E435E603C
:102C50006368934206D94FF4967359434FF47A73DD
:102C6000B1FBF3F12368491C1E6A26F03F0631438D
:102C700019626168914210D84900401EB0FBF1F220
:102C8000521CC2F30B02042A01D2042022E0B0FB42
:102C9000F1F0401CC0F30B001CE0A268F2B301EBA2
:102CA000C10303EB0116431EB3FBF6F35B1C43F4B5
:102CB00080431B0549D092B301EBC10202EB011125
:102CC000401EB0FBF1F0401CC0F30B0040F480400C
:102CD00040F400402168CA694CF6FF739A431043E0
:102CE000C861D4E9071001432068026822F0C002DD
:102CF00011430160D4E9030101432068826848F26E
:102D0000FF339A4311438160D4E9050108432168E8
:102D1000CA6822F0FF021043C86001E00EE016E02E
:102D20002068016841F0010101602564202084F8D9
:102D30003D00256384F83E50002070BD01EB410644
:102D4000431EB3FBF6F35B1CB3E70120C2E701EBC4
:102D50004101401EB0FBF1F0401CC0F30B00B7E78F
:102D6000A086010080841E0000093D0040420F0043
:102D70002DE9FF4F83B09A46DDE91197934604464B
:102D8000DDF84080FFF72AFF054694F83D00202833
:102D900070D11923012271492046009502F012FAE0
:102DA0000028F5D194F83C00012863D0012084F874
:102DB0003C0020680168C90703D1016841F00101A6
:102DC00001602068016821F400610160222084F81C
:102DD0003D00402084F83E0000262664C4F824808C
:102DE000A4F82A90608D20855D48E062CDE90075E9
:102DF00053465A462046049902F0ECF800287CD14C
:102E0000208DD0B1012821D00228206824D041692A
:102E100080690090208D032869D801282BD0514962
:102E200002283B464FF00002009559D088462046C4
:102E300002F0C8F9002860D13CE02068416981694E
:102E40000091016841F40071016077E02068016839
:102E500021F480610160F0E7016821F48061016084
:102E60002068016841F4006101602068416980695F
:102E7000009063E06FE02A463946204602F021FACE
:102E800098BB20680069616A08704EE0206801689C
:102E900041F40071016020680069616A0870606A2D
:102EA000401C6062218D491E2185618D491E61850E
:102EB000216838E02068016821F4806101602068A1
:102EC0000069616A0870606A401C6062208D401E63
:102ED0002085608D401E60853B460022414600955E
:102EE000204602F06FF900B9D0E706E0FFE72A4676
:102EF0003946204602F0E5F918B1012007B0BDE8D7
:102F0000F08F20680069616A0870606A401C606226
:102F1000218D491E2185618D491E618521684A697F
:102F2000D24352070AD409690170606A401C60628A
:102F3000208D401E2085608D401E6085208D0028DC
:102F40007FF468AF202084F83D0084F83E6084F868
:102F50003C600020D2E70220D0E700000200100011
:102F60000000FFFF040001002DE9FF4F83B09A46E7
:102F7000DDE9119793460446DDF84080FFF72EFE09
:102F8000054694F83D0020287FD1192301224049AD
:102F90002046009502F016F9002876D194F83C00FE
:102FA000012872D0012084F83C0020680168C9071C
:102FB00003D1016841F0010101602068016821F43A
:102FC00000610160212084F83D00402084F83E002B
:102FD00000262664C4F82480A4F82A90608D2085F9
:102FE0002C48E062CDE9007553465A4620460499C4
:102FF00002F06EF870B930E02A463946204602F0F9
:1030000093F958B1206C042804D12068016841F478
:1030100000710160012007B0BDE8F08F606A21688F
:1030200000780861606A401C6062218D491E89B287
:103030002185628D521E628522685369DB435B07DE
:103040000BD469B100781061606A401C6062208D09
:10305000401E2085608D401E6085208D0028CBD1CC
:103060002A463946204602F087F80028CAD154F88B
:103070003D0B016841F400710160202004F81E0935
:10308000E67766770020C6E7FFE70220C3E7000087
:10309000020010000000FFFFF0B587B004461421C5
:1030A0006846FDF798FA1A49206888422DD11948D8
:1030B000016841F004010160016801F0040105911B
:1030C000016841F0010101600068122400F0010074
:1030D00005904FF400700125032604278DE8F100C8
:1030E00069460D48FFF774FC28028DE8F100694637
:1030F0000A48FFF76DFC07481030016841F40001F1
:103100000160006800F40000059007B0F0BD000009
:10311000005C0040303802400008024000000240DD
:10312000024881680278114481607047E401002000
:103130000B4810B5016841F400710160016841F469
:1031400080610160016841F480710160032000F03A
:103150008DF80F2000F006F800F03EF8002010BDBA
:10316000003C024010B5014688B000221C2000F04F
:103170005DF81C2000F04CF814480024016841F070
:1031800001010160006805A900F001000690684691
:1031900000F0AEFD00F0D2FD0D494000B0FBF1F1B2
:1031A0000C484FF08042491E026040F2E732C0E90D
:1031B0000324C0E9011401F0E1F910B1012008B0C5
:1031C00010BD044801F0DAFAF9E700004038024087
:1031D00040420F00684700200C4882B0016841F46B
:1031E00080410160006800F4804000900748001FA3
:1031F000016841F0805101600068002200F08050B9
:1032000000900F21901E02B000F010B84438024028
:10321000002809DB00F01F020121914040098000D5
:1032200000F1E020C0F8001170470000F0B40E4B30
:103230001B680C46C3F30223C3F10705042D00D914
:103240000425191D072901D2002300E0DB1E0126F9
:1032500006FA05F1491E214099409E40761E16400F
:103260003143F0BC06F09CBF0CED00E0064900F0D5
:10327000070208684FF6FF03184040EA0220034A9D
:1032800010430860704700000CED00E00000FA05F4
:1032900070470068416200207047F0B50368586AC3
:1032A00039B19C6A4FF4827600EB144400204D1E25
:1032B0000AE040EA024098620FE006EB8007DF591F
:1032C000401C04EB1744C0B2A842F6D344EA0240C3
:1032D0004FF4807202EB810158500020F0BDD0F80D
:1032E000040405F012BAC1EBC10200EB8202D0F86F
:1032F0000404926C05F073B9C1EBC10200EB8202C9
:10330000D0F80404D2F8082205F0C7B9D0F80404B4
:1033100005F0FDB970B504460B0601F00F00C0EBD7
:10332000C00104EB81014FF001024FF0000503D50D
:1033300081F83D203C3103E081F8FD5101F5FE713B
:10334000087094F8BC03012808D084F8BC232068D6
:1033500005F004FE84F8BC53002070BD022070BD4F
:1033600070B5044601F00F006268904201D9012057
:1033700070BD0B0601F00F01C1EBC10104EB81012F
:103380004FF001024FF0000503D581F83D203C319C
:1033900003E081F8FD5101F5FE718D70087094F81D
:1033A000BC03012808D084F8BC23206805F0D0FFB6
:1033B00084F8BC53002070BD022070BD01F00F01E5
:1033C000C1EBC10100EB8100D0F8140270472DE978
:1033D000F04104460F0601F00F00C0EBC00104EB02
:1033E00081014FF001064FF0000503D581F83D60E3
:1033F0003C3103E081F8FD5101F5FE7108708A60EF
:10340000CB704A7802B1C880022B00D10D7194F8BC
:10341000BC03012809D084F8BC63206805F0F6FCE1
:10342000284684F8BC53BDE8F0810220FBE770B564
:103430000C4601F00F05C5EBC50100EB8101C1F899
:103440001032C1F808220023C1F8143281F8FD318E
:1034500081F8FC51036901F5FE71012B00D10A616D
:103460002207027C006803D005F0CAFF002070BD6F
:1034700005F0B6FEFAE770B504460D4601F00F0000
:103480006168884201D9012070BD29064FF000060D
:103490004FF0010207D5C0EBC00104EB810181F8B8
:1034A0003D203C3107E0C5EBC50104EB810181F80B
:1034B000FD6101F5FE718A70087094F8BC03012863
:1034C00007D084F8BC23206805F06EFF280702D0DF
:1034D00007E0022070BD217C04F57172206805F0C0
:1034E0000BFF84F8BC63002070BD70B50C4601F082
:1034F0000F05C5EBC50100EB81010B658A64002354
:103500004B65012381F83D3001F83C5F0369012BD5
:1035100000D10A612207027C006803D005F070FF29
:10352000002070BD05F05CFEFAE700002DE9FC5FAD
:1035300005680446284606F094F800287ED12068E5
:1035400006F0BBF8002879D0206806F0B6F88007AE
:1035500004D52168486900F002004861206806F03F
:10356000ACF8C10604F57170009034D5206881690B
:1035700021F0100181612F6A07F00F00C0EBC0003D
:1035800004EB8006C7F3434006F5FE76022802D01E
:10359000062811D01AE047F6F070074216D0C7F39C
:1035A0000A1217462846F16806F08BF8F06838448E
:1035B000F060B069384408E008222846009906F017
:1035C00080F8B069C7F30A110844B06120688169C6
:1035D00041F010018161206806F06FF800034FF0A0
:1035E000010A4FF0080B5BD50026206806F044F86E
:1035F0000746DFF8689351E0F8074DD0F1B2206834
:1036000006F053F88046C00707D005EB4611C1F815
:1036100008AB3146204602F00FFC5FEA087022D565
:1036200005EB4611C1F808BB2068016C00EB4610A1
:103630000191D0F8082B494507D900E08BE111042E
:1036400003D54FF40041C0F8081B204600F076FA7D
:103650000198484507D92069012804D12068012133
:10366000009A05F049FE5FEAC86004D505EB4611F3
:103670001020C1F8080B5FEA886004D505EB4611FD
:103680002020C1F8080B5FEA884005D505EB4610FD
:103690004FF40051C0F8081B7F08761C002FABD1F7
:1036A000206806F00AF840034FF000095CD5206856
:1036B00005F0DBFF0746002654E0F80750D0F1B2D2
:1036C000206805F0E0FF8046C00723D006F00F0217
:1036D0000AFA02F0D5F834288243C5F8342805EBFD
:1036E0004610C0F808A9206901280FD1C6EBC60012
:1036F00004EB8000D0E911211144816436B9206DBA
:1037000020B920680121009A05F0F6FDF1B22046AB
:10371000FFF7E9FD5FEA087003D505EB4611C1F834
:1037200008B95FEAC86004D505EB46111020C1F85E
:1037300008095FEA486004D505EB46114020C1F84E
:1037400008095FEA887004D505EB46110220C1F82C
:1037500008095FEA086003D53146204602F0D2FB33
:103760007F08761C002FA8D1206805F0A6FF00284E
:1037700011DAD5F8040820F00100C5F8040894F81F
:10378000F403012829D0204600F0BCF920684169E3
:1037900001F000414161206805F08FFF00050BD565
:1037A000D5F80808C00702D0204600F0EFF92068DD
:1037B000416901F400614161206805F07EFFC004A9
:1037C00068D5D5F8040820F00100C5F804081021D8
:1037D000206805F023FF002127E084F8F4930021FE
:1037E0002046FFF755FDD1E705EB41104FF67F323C
:1037F000C0F80829D0F8003923F40013C0F80039C4
:10380000D0F8003943F00063C0F80039C0F8082B45
:10381000D0F8002B22F40012C0F8002BD0F8002BB7
:1038200042F00062C0F8002B491C60688842DBD877
:10383000D5F81C0840F00110C5F81C08206B60B1D9
:10384000D5F8840840F00B00C5F88408D5F8440882
:1038500040F00B00C5F844080CE0D5F8141842F20B
:103860002B000143C5F81418D5F8100840F00B00E0
:10387000C5F81008D5F8000820F4FE60C5F8000867
:10388000217C2068009A05F037FD2068416901F429
:1038900080514161206805F010FF800415D5206833
:1038A00005F0F4FA206805F0CFFEE06000F040FA81
:1038B0000146227B206805F063FF204600F00CF9EA
:1038C0002068416901F400514161206805F0F5FE6E
:1038D000000707D5204600F019F92068416901F07A
:1038E00008014161206805F0E8FEC00208D500210A
:1038F000204600F035F82068416901F480114161EB
:10390000206805F0DAFE800208D50021204600F08C
:103910002BF82068416901F400114161206805F02D
:10392000CCFE400007D52046FFF7D9FC206841694E
:1039300001F080414161206805F0BFFE40070AD5D3
:1039400020684568680702D52046FFF7DFFC20683D
:10395000416829434160BDE8FC9F00000A30544F94
:10396000D0F8040404F024BFD0F8040404F031BFFC
:103970002DE9F0418AB0040005D094F8BD03266813
:10398000002520B108E001200AB0BDE8F08184F8EC
:10399000BC53204600F05EF8032084F8BD03F06BB2
:1039A000C00500D42561206805F014FC04F1100165
:1039B000282288466846FCF7B2FD94E80F0005F01F
:1039C00073FA0226C8BB0021206805F099FE00208A
:1039D00001270EE0C0EBC00104EB810181F83D70CE
:1039E00001F83C0FC880CD708D60CD60401CC0B226
:1039F0004D6161688142EDD8002011E0C0EBC0014B
:103A000004EB810181F8FD5181F8FC0181F8FF513F
:103A1000C1F80452C1F80852401CC0B2C1F810529B
:103A200061688142EAD8282241466846FCF777FD62
:103A300094E80F0005F014FB10B184F8BD63A2E711
:103A400084F8385084F8BD73206805F0FBFA002034
:103A50009AE7000010B586B0044614216846FCF7CA
:103A6000BAFD2068B0F1A04F2FD11948002102689B
:103A700042F001020260006800F0010005904FF47E
:103A8000C05000900220CDE90101032003900A20DC
:103A9000049069460F48FEF79BFF0D48001D016822
:103AA00041F0800101600A481430016841F480410E
:103AB00001600068002200F4804005900521432049
:103AC000FFF7B4FB4320FFF7A3FB06B010BD0000D7
:103AD000303802400000024070B50446C06801253D
:103AE00070B1022801D0FDF7E4FE2946D4F80404A1
:103AF00004F0DEFED4F80404BDE8704004F08FBE8C
:103B00000025F2E7D0F8040404F0B7BED0F80404AE
:103B100004F0BDBE10B5044690F8BC0301280BD0DC
:103B2000012084F8BC0384F83810206805F016FEE4
:103B3000002084F8BC0310BD022010BDD0F804247E
:103B400000F57171104604F0BFBE10B50446006860
:103B500094F8BC13012906D0012184F8BC13A16A92
:103B6000012902D008E0022010BDA169012903D07B
:103B7000816B41F480318163206805F035FD206858
:103B800005F052FA002084F8BC0310BD10B50446BD
:103B9000D0F8040404F0DCFE2068D0F8001E41F0E8
:103BA0000101C0F8001E206A002804D00248016804
:103BB00041F00601016010BD10ED00E02DE9F04775
:103BC0000E46050065D0DFF81481D8F80000F7B282
:103BD00000F00700B04207D288F80070D8F8000063
:103BE00000F00700B04254D128683D4C810712D53F
:103BF000400703D5206840F4E05020602878000793
:103C000003D5206840F4604020602068A96820F057
:103C1000F000084320602878C0072DD0304968683C
:103C20000839012812D0022813D0032811D00968BE
:103C3000890700292DDA216821F003010143216061
:103C4000FEF7CCFF814641F2883A0EE0096889030D
:103C5000EFE709688901ECE7FEF7C0FFA0EB090177
:103C6000514502D90320BDE8F0872068696800F05B
:103C70000C00B0EB810FEFD1D8F80010404601F0F6
:103C80000701B14207D90770006800F00700B04291
:103C900001D00120E7E72878400705D52068E968CA
:103CA00020F4E050084320602878000706D52068FB
:103CB000296920F4604040EAC100206000F05EF80D
:103CC0002168084AC1F30311515CC84006490860E5
:103CD00006480068FFF746FA0020C4E7003C0240AF
:103CE0000838024050EA0008F0010020E8010020F6
:103CF0000F2202600C4A136803F003034360136849
:103D000003F0F0038360136803F4E053C3601268A8
:103D10004FF4E05303EAD20202610448006800F065
:103D2000070008607047000008380240003C02406D
:103D30000148006870470000F00100200448054970
:103D400000680968044AC1F38221515CC840704789
:103D5000F00100200838024060EA000804480549E4
:103D600000680968044AC1F34231515CC840704799
:103D7000F00100200838024060EA0008154810B53C
:103D8000006810F00C02144813D01449042A0FD014
:103D9000082A0ED10F4C241F2268236802F03F022C
:103DA0005B0207D52068C0F38810A0FB010106E084
:103DB000084610BD2168C1F38811A1FB0001002352
:103DC000FCF7D2FA2168C1F30141491C4900B0FB5C
:103DD000F1F010BD083802400024F400001BB700C9
:103DE0002DE9F84F04006ED02078DFF84C93C0071F
:103DF000A9F104054AD009F104000168C1F3810169
:103E0000012908D00068C0F3810002280AD1D9F83E
:103E10000000400206D52868800337D56068002876
:103E2000E1D033E06068B0F5803F10D0B0F5A02F4E
:103E3000286810D020F480302860286820F4802082
:103E400028606068A8B1FEF7C9FE06460DE0286844
:103E500040F48030F4E740F480202860F7E700BFAA
:103E6000FEF7BCFE801B642873D828688003F7D552
:103E70000CE0FEF7B3FE064605E000BFFEF7AEFE1F
:103E8000801B6428F0D828688003F7D42078DFF8F6
:103E9000AC8280074FF0000A3ED5A748001D01689C
:103EA00011F00C0F08D00068C0F3810002280BD17C
:103EB000D9F80000400207D42868800716D5E068CA
:103EC000012800D112E033E1E068B8B10120C8F860
:103ED0000000FEF783FE064605E000BFFEF77EFE0B
:103EE000801B0228C0D828688007F7D52868216978
:103EF00020F0F80040EAC10028600DE0C8F800A0FA
:103F0000FEF76CFE064604E0FEF768FE801B022802
:103F10001FD828688007F7D42078000722D5864F5D
:103F200087486169703771B101210160FEF756FE63
:103F3000064604E0FEF752FE801B022809D83868C6
:103F40008007F7D50EE0C0F800A0FEF747FE064652
:103F500005E082E0FEF742FE801B02287DD838682B
:103F60008007F7D42078400768D5DFF8CCB1002768
:103F70000BF13C0BDBF80000C0000BD4DBF80010A9
:103F800041F08051CBF80010DBF80000012700F071
:103F9000805000906B4E3068C00510D4306840F4FB
:103FA00080703060FEF71AFE009005E0FEF716FE06
:103FB0000099401A022850D83068C005F6D55E4EE8
:103FC000A0686C3601280FD00528306810D020F08A
:103FD00001003060306820F004003060A068B8B1A3
:103FE000FEF7FCFD00900FE0306840F00100F4E7C0
:103FF00040F004003060F7E7FEF7F0FD0099411A49
:1040000041F28830814266D830688007F4D50EE0EE
:10401000FEF7E4FD009007E0FEF7E0FD0099411A8D
:1040200041F28830814256D830688007F4D42FB1ED
:10403000DBF8001021F08051CBF80010A069C8B364
:104040003D49091D0968C1F3810102294AD00228AE
:10405000504607D0C8F8600000E03CE0FEF7BEFD27
:1040600004463BE04746C8F86000FEF7B7FD064649
:1040700005E000BFFEF7B2FD801B02282BD82868A0
:104080008001F7D4D4E907010843A16A2E4A490800
:1040900002EB0141626A41EA8211084394F82C1054
:1040A00040EA0161C9F8001001203866FEF796FD6C
:1040B000044606E03EE000BFFEF790FD001B02282C
:1040C00009D828688001F7D534E000BFFEF786FDE7
:1040D000001B022802D90320BDE8F88F2868800160
:1040E000F4D427E00128F7D0D9F80000E26900F401
:1040F000800191421CD1226A00F03F01914217D108
:1041000047F6C071626A0140B1EB821F10D1A26A0A
:104110004FF0FF3300F4403103EB5202B1EB024F9A
:1041200006D194F82C1000F07060B0EB016F01D054
:104130000120D1E70020CFE70438024000004742C9
:10414000800E4742007000400000FFFF70B5040081
:1041500009D0606A002540B125616561A56294F8C7
:10416000510040B10CE0012070BD6068B0F5827F65
:10417000F4D0E561F2E784F85050204600F044F8AE
:10418000022084F851002068016821F0400101609C
:10419000A088218900F4827001F404410843A189B8
:1041A00001F400610843217C01F002010843217DF4
:1041B00001F001010843218B01F400710843217FC4
:1041C00001F03801084394F8201001F08001084301
:1041D000218D01F40051084321680860A069042181
:1041E00001EA104094F8241001F0100108432168FE
:1041F00048602068C16921F40061C16165650120E2
:1042000084F85100002070BD2DE9F04387B00646C8
:1042100014216846FCF7DFF934493068884261D1DF
:1042200033480025016841F480510160006800F4C2
:10423000805005902E481438016841F00201016059
:10424000016801F002010591016841F0010101607E
:104250000068022400F001000590182001274FF0AB
:1042600003084FF005098DE8910369462148FEF7E0
:10427000AFFB80208DE8910369461F48FEF7A8FB3D
:104280001F4C1E484FF0C0672060C4E901754FF411
:104290008068C4E9035865617812A561C4E90750D4
:1042A00020466562FEF7C6FA08B1FDF702FBF4642A
:1042B000A663134C114860341830E4E8020740202C
:1042C000A4E82101C00244F81459A561C4E90750CB
:1042D0000B4865626030FEF7ADFA08B1FDF7E9FA08
:1042E000B464A66307B0BDE8F0830000003001406D
:1042F0004438024000040240000002404064024092
:10430000142800202DE9F84F044690F850000027AB
:104310000A9E1D4692468B464FF0010901280ED099
:10432000012084F85000FEF759FC804694F85100B3
:10433000616801280CD0B1F5827F07D102E002202C
:10434000BDE8F88FA16809B9042801D00227C2E0AE
:10435000BBF1000F27D0BAF1000F24D01DB394F8A1
:104360005100042802D0052084F851000020606527
:10437000C4F838A0E587A587C4F830B0E586A586DF
:104380002064606420680168490603D4016841F034
:1043900040010160E068B0F5006F606805D0E8B3E7
:1043A000012D46D07FE0012795E008B1012D39D1DC
:1043B000206B21680088C860206B801C2063E08E21
:1043C000401EE0862EE02068816889070FD5E18EC7
:1043D00069B1B9F1010F0AD1216B0988C160206B65
:1043E000801C2063E08E401EE0864FF000092068AC
:1043F0008168C9070CD0E18F51B1C068A16B0880FA
:10440000A06B801CA063E08F401EE0874FF0010985
:10441000FEF7E4FBA0EB0800B04200E009E001D3A6
:10442000701C50D1E08E0028CDD1E08F0028CAD179
:104430003FE0206B216800780873206B401C2063EC
:10444000E08E401EE0862EE02068816889070FD547
:10445000E18E69B1B9F1010F0AD1216B09780173BD
:10446000206B401C2063E08E401EE0864FF0000968
:1044700020688168C9070CD0E18F51B1C068A16B79
:104480000870A06B401CA063E08F401EE0874FF0D7
:104490000109FEF7A3FBA0EB0800B04202D3701C99
:1044A00001D010E07EB1E08E0028CDD1E08F002851
:1044B000CAD142463146204603F054F828B10127BC
:1044C0002020606507E0032705E0A06818B9206890
:1044D000C16880680090012084F85100002084F8B1
:1044E000500038462CE770477047000070B590F8D0
:1044F0003C20012A32D0012480F83C40022280F87E
:104500003D2003685A689D6822F070060A683243AD
:104510005A60134B02689A4214D0B2F1804F11D006
:10452000104B9A420ED0104B9A420BD00F4B9A422E
:1045300008D00F4B9A4205D00E4B9A4202D00E4B38
:104540009A4204D1496825F080031943916080F8AC
:104550003D40002180F83C10084670BD022070BD2F
:10456000000001400004004000080040000C004032
:1045700000040140004001400018004010B5040054
:1045800003D094F83D0010B107E0012010BD0020D9
:1045900084F83C00204600F01FF8022084F83D001B
:1045A000211D206803F01CF9012084F8460084F8DE
:1045B0003E0084F83F0084F8400084F8410084F80D
:1045C000420084F8430084F8440084F8450084F8ED
:1045D0003D00002010BD0000F0B587B00446142156
:1045E0006846FBF7F8FF3F4A3D4823683D49143AC7
:1045F00002260124032583421CD1086840F00100F3
:104600000860086800F001000590106840F0100094
:1046100010601068CDE9024500F0100005904FF4DD
:104620002060CDE90006694604942F48FEF7D0F9D2
:1046300007B0F0BD2B482D4F001FBB4207D10168CA
:1046400041F002010160006800F0020027E0284FFD
:10465000BB421AD1086840F002000860086800F008
:1046600002000590106840F4807010601068CDE979
:10467000024500F4807005904020CDE900066946AF
:1046800004951C48FEF7A4F921E01B4A934208D187
:10469000086840F400300860086800F400300590B5
:1046A000C6E716498B4207D1016841F0400101601D
:1046B000006800F04000F2E711498B42B8D1016870
:1046C00041F480710160006800F480700590002260
:1046D00005212D20FEF7AAFD2D20FEF799FDA7E765
:1046E0000000014044380240001002400004004035
:1046F0000004014000200240004401400018004036
:104700000020004090F83D10012901D001207047A1
:10471000022180F83D1000681149884214D0B0F1A0
:10472000804F11D00F4988420ED00F4988420BD0DC
:104730000E49884208D00E49884205D00D4988426A
:1047400002D00D49884204D1816801F00701062991
:1047500003D0016841F001010160002070470000B2
:10476000000001400004004000080040000C004030
:1047700000040140004001400018004090F83D1046
:10478000012901D001207047022180F83D10016805
:10479000CA6842F00102CA6000681149884214D018
:1047A000B0F1804F11D00F4988420ED00E49884297
:1047B0000BD00E49884208D00D49884205D00D49DA
:1047C000884202D00C49884204D1816801F0070177
:1047D000062903D0016841F0010101600020704703
:1047E000000001400004004000080040000C0040B0
:1047F00000040140004001400018004070B504462C
:1048000090F83C000025012817D0012684F83C6070
:10481000022084F83D002068826822F0770222F4AA
:104820007F4282600868502838D00DDC20284FD0A5
:1048300005DC90B3102811D14AE0022070BD302869
:1048400046D040280AD13BE060282FD070280DD0F8
:10485000B0F5805F03D0B0F5005F12D0012584F879
:104860003D60002084F83C00284670BDCB68D1E94B
:104870000121206803F025F82068816841F0770164
:1048800009E0CB68D1E90121206803F01AF820681B
:10489000816841F480418160E1E719E0CA684968B4
:1048A000206803F029F95021206806E0CA684968A9
:1048B000206803F032F96021206803F00CF8CEE79D
:1048C000CA684968206803F017F940212068F4E7B6
:1048D000226801461046F0E7704770B5044600684C
:1048E00001694FF00005C943890715D4C168C94360
:1048F000890711D4E91E01610120207720688069B1
:104900008007204602D0FFF7E7FF04E000F0F0F850
:10491000204600F082F9257720680169C9434907DC
:1049200017D4C168C943490713D46FF0040101616A
:10493000022020772068806910F4407F204602D052
:10494000FFF7CAFF04E000F0D3F8204600F065F955
:10495000257720680169C943090716D4C168C9438E
:10496000090712D46FF00801016104202077206844
:10497000C0698007204602D0FFF7AEFF04E000F0D8
:10498000B7F8204600F049F9257720680169C94346
:10499000C90617D4C168C943C90613D46FF0100102
:1049A0000161082020772068C06910F4407F20460C
:1049B00002D0FFF791FF04E000F09AF8204600F0E3
:1049C0002CF9257720680169C943C90708D1C16856
:1049D000C943C90704D1891E0161204600F082F94C
:1049E00020680169C943090609D4C168C943090699
:1049F00005D46FF0800101612046FFF774FD206847
:104A00000169C943490609D4C168C943490605D4A7
:104A10006FF040010161204600F09DF920680169B6
:104A2000C94389060BD4C168C943890607D46FF00E
:104A3000200101612046BDE87040FFF755BD70BD03
:104A400070B586B0044614216846FBF7C4FD24689F
:104A5000204E21484025022101230322B4420FD1D8
:104A6000046844F004040460006800950392CDE9F2
:104A7000011300F00400CDE904106946174811E065
:104A8000174EB44212D1046844F020040460006858
:104A9000CDE9005100F02000CDE90420CDE902323B
:104AA00069461048FDF794FF06B070BD0E4DAC424C
:104AB000FAD1046844F002040460006800F00200C7
:104AC0000590E8008DE80B000920CDE90320694638
:104AD0000648E7E700040040303802400008024082
:104AE000004401400014024000180040000402404D
:104AF000704770B5044690F83C0000260D4601282A
:104B00000FD0012084F83C006AB1042A1DD0082A85
:104B10002FD00C2A3FD00126002084F83C003046DC
:104B200070BD022070BD206802F0DEFE2068816941
:104B300041F0080181612068816921F004018161EF
:104B4000206881692A69114311E0206802F0FCFEA7
:104B50002068816941F4006181612068816921F4E4
:104B600080618161206881692A6941EA022181614D
:104B7000D2E7206802F01EFF2068C16941F00801F9
:104B8000C1612068C16921F00401C1612068C16967
:104B90002A69114311E0206802F040FF2068C169D2
:104BA00041F40061C1612068C16921F48061C16183
:104BB0002068C1692A6941EA0221C161ACE710B5E8
:104BC000040003D094F83D0010B107E0012010BDAF
:104BD000002084F83C00204600F01EF8022084F8F3
:104BE0003D00211D206802F0FBFD012084F84600F5
:104BF00084F83E0084F83F0084F8400084F84100C7
:104C000084F8420084F8430084F8440084F84500A6
:104C100084F83D00002010BD7047704710B5044671
:104C2000022249B104290ED0082913D094F841007A
:104C3000012816D0012010BD94F83E000128F9D1BA
:104C400084F83E200FE094F83F000128F2D184F868
:104C50003F2008E094F840000128EBD184F8402080
:104C600001E084F841200122206802F01DFE16496F
:104C70002068164A884201D0904203D1436C43F425
:104C8000004343642068884213D0B0F1804F10D0B5
:104C90000F4988420DD00F4988420AD00E498842F8
:104CA00007D0904205D00D49884202D00C49884275
:104CB00004D1816801F00701062903D0016841F0A1
:104CC00001010160002010BD00000140000401400E
:104CD0000004004000080040000C0040004001407B
:104CE000001800400068B0F1804F04D003498842AA
:104CF00003D106F0C3BAFEF713BA70470020004094
:104D000070B5044690F83C00012812D0012584F8C3
:104D10003C50022084F83D00204602F0A7FE01002E
:104D20004FF0000007D084F83D5084F83C0001208B
:104D300070BD022070BD2168CA6822F04002CA60BE
:104D40002168CA6822F48042CA6084F83D5084F821
:104D50003C00002070BD704770B5040004D094F88A
:104D60003D00002510B106E0012070BD84F83C50E4
:104D7000204600F023F8242084F83D002068C16814
:104D800021F40051C160204602F0DAFE206801697A
:104D900021F4904101612068416921F02A014161BB
:104DA0002068C16841F40051C1602564202084F866
:104DB0003D0084F83E00002070BD00002DE9F04366
:104DC00087B0064614216846FBF705FC6B486A4A23
:104DD00033686A4914380225032700244FF0070876
:104DE00093422ED10A6842F010020A60096801F06D
:104DF00010010591016841F002010160016801F0B4
:104E000002010591016841F001010160006802AAF8
:104E100000F0010005908020CDE9000582E89001B6
:104E200069465748FDF7D4FD2802CDE9000502AADE
:104E3000694682E890015348FDF7CAFD07B0BDE816
:104E4000F083DFF844C101224FF48069634539D112
:104E50004A49091F0B6843F480230B60096801F479
:104E600080210591016841F004010160006802ABF6
:104E700000F0040005904FF44060CDE9000583E8A0
:104E8000840169464148FDF7A3FD424D4048286032
:104E90004FF00060C5E90104C5E903496C61AC61EC
:104EA000EC612C6228466C62FDF7C4FC08B1FCF78B
:104EB00000FDB563002205212720AE63FEF7B6F999
:104EC000272056E0DFF8D0C06345B7D10B6843F028
:104ED00020030B60096801F020010591016841F091
:104EE000400101600068029200F0400005904FF41C
:104EF0008440CDE900050820CDE9037069462748C4
:104F0000FDF766FD234D264860354FF02068286088
:104F1000C5E90184C5E903496C614FF40030AC6117
:104F2000C5E907404F4628466C62FDF783FC08B18F
:104F3000FCF7BFFCB563AE63164D1948C035783039
:104F4000E5E80208402091C5124845F81449C030F0
:104F5000AC61EC612C626C62FDF76CFC08B1FCF793
:104F6000A8FC7563002205214720AE63FEF75EF9B9
:104F70004720FEF74DF961E7001001404438024038
:104F800000040240000002400048004000080240C7
:104F900028600240502B00200014014000180240FD
:104FA00028640240FEE701684A69D24352050FD4E3
:104FB0006FF480624A61002140F8301F2022427362
:104FC0008173026942F0040202610173012070479B
:104FD000002070472DE9F84F0446006889460B9D74
:104FE00001689846174641F48061016020680168B5
:104FF00041F48071016000954FF0011B0022594679
:1050000020460A9B00F0DEF84FF4007A40B1206899
:105010000068C00501D5C4F840A00320BDE8F88FA2
:10502000216809F0FE0008612B46284920460A9AAB
:1050300000F0FCF8F0BB20684169806900902A46C6
:1050400020460A9900F070F940B1206C04283AD14A
:105050002068016841F40071016034E0FEB2B8F1EB
:10506000010F09D02168380A08612A4620460A99AA
:1050700000F05AF90028E8D1206806612A46204647
:105080000A9900F051F90028DFD12068016841F445
:105090008071016000950022594620460A9B00F06D
:1050A00091F80028B3D1216809F0FF0040F0010019
:1050B000086100E007E02B46044920460A9A00F008
:1050C000B5F80028AAD00120A8E7000002000100DE
:1050D0002DE9F843044600680D46DDE908970168AC
:1050E0009846164641F4807101604B4600224FF00D
:1050F00001112046009700F065F848B1206800686B
:10510000C00502D54FF4007020640320BDE8F88389
:10511000216805F0FE0008613B464A4615492046D5
:1051200000F084F888B920684169806900903A46A7
:105130004946204600F0F8F848B1206C042804D114
:105140002068016841F4007101600120DEE7F5B2DA
:10515000B8F1010F09D02168300A08613A46494682
:10516000204600F0E1F80028E7D120680561002022
:10517000CCE700000200010070B516460D4604465B
:105180000DE02046FFF70FFF08B1012070BD681C3D
:1051900005D0FDF723FD801BA84207D835B1206854
:1051A0004069C0434007ECD4002070BD002044F8A3
:1051B000300F20216173A073216941F0200121612A
:1051C0002073E2E72DE9F0471E4690460D4604465F
:1051D000C1F30747DDF8209008E0701C06D0FDF70A
:1051E000FDFCA0EB0900B0420FD876B12068012F7A
:1051F00018D0806925EA00000004000C14D00021BA
:105200004145EAD00020BDE8F087002044F8300F87
:1052100020216173A073216941F020012161207375
:105220000120F0E74069E5E70121E9E72DE9F047D2
:105230009A4691460E46044600254FF02008C1F3D9
:10524000074725E020684069C043400514D4206822
:10525000016841F40071016021686FF48060486169
:10526000256384F83D8084F83E50206C40F00400B3
:10527000206484F83C501FE0B9F1FF3F08D0FDF7EF
:10528000ADFCA0EB0A0149450CD8B9F1000F09D0DB
:105290002068012F13D0806926EA00000004000C6A
:1052A0000BD0CFE744F8305F84F80D80A5732069F8
:1052B00040F02000206125730120BDE8F08740699F
:1052C000EAE72DE9F041002590460E4604462027E6
:1052D00017E04069C043C0060CD454F8301B6FF08F
:1052E0001000486144F810596777A577206A20625A
:1052F000257717E0FDF772FCA0EB0800B04208D854
:105300003EB120684169C9434906E2D40020BDE8A6
:10531000F08144F8305F6773A573206940F0200086
:10532000206125730120F2E770B516460D4604464C
:105330000DE02046FFF737FE08B1012070BD681C64
:1053400005D0FDF74BFC801BA84207D835B120687B
:105350004069C0430006ECD4002070BD002044F832
:10536000300F20216173A073216941F02001216178
:105370002073E2E708B5072000E0642006F044FB54
:10538000FBF752FC0028F8D102E0642006F03CFB59
:1053900006F064FA0028F8D1894AA2F11004101D21
:1053A0009346211D8246FBF757FC2346A3F140029A
:1053B00004F16C06A2F10C01A1F10C00009606F0BC
:1053C000A9F8DFED800A9FED800A804A002104F1F0
:1053D000880000F07DFEA4F14002A2F10C0101F171
:1053E0001800FBF791F9002006F04AFB08F048F995
:1053F000774D102168617748C161FEF7A7FE08B1BB
:10540000FCF757FA724908222431A1F1080002F092
:1054100031F8012028719FED700ADFF8A4814FF068
:10542000FF3908F1140888ED050A88ED060A88EDB1
:10543000070A4946012007F011FA0128F9D1287816
:10544000400720D5287820F0040028706048514695
:105450002530FBF7B9FB94ED050AD8ED050A30EECF
:10546000600A84ED050A94ED060AD8ED060A30EECE
:10547000600A84ED060A94ED070AD8ED070A30EEBB
:10548000600A84ED070A687840070AD5687820F03A
:10549000040068704A4A211D1032A2F12A00FBF76D
:1054A0004DFBA87840070CD5A87820F00400A87020
:1054B000474859461A30FBF7A9FC94ED040A06F058
:1054C0001BF93F4B0096103BA3F14002A2F10C01E7
:1054D000A1F10C0006F01EF839488038A0F10C024A
:1054E000D0ED000A00F10C01C2ED000A91ED001AA6
:1054F00080ED001A9FED390A00F1240361EE001AD5
:105500009FED371A93ED002A40EE811ADFED350A40
:1055100042EE201AC1ED001AD0ED011AC2ED011AB7
:1055200091ED012A80ED012A22EE002A01EE812A66
:10553000D3ED011A01EEA02A81ED012AD0ED021A65
:10554000C2ED021A91ED022A0A4680ED022A22EEED
:10555000000A3C3001EE810A93ED021A0C3301EE91
:10556000200A81ED020A0C319FED1F0AFBF726FA93
:10557000134F343F3B1D39461A1DA1F1100005F0B1
:1055800055FFD7ED000A9FED190A07F10C0020EE38
:10559000801ADFED170AC1EE201AC0ED001A97ED50
:1055A000011A21EE001AC1EE201AC0ED011A97ED82
:1055B000021A21EE000A80EE201A80ED021A38E766
:1055C000DC0400200080894500A08C4588E50008A7
:1055D00024000020BC270020000000005AF8F63FFD
:1055E0005D896EBFD5A9183B6F12833A0000344322
:1055F000DB0F4940F0B500230A24302537261F462B
:1056000011E000BFB4EB107F02D905EB107C01E084
:1056100006EB107C01F813C001EB430C00015B1C8E
:105620008CF80170DBB29342ECD3F0BD08494FF423
:105630007A700860074C084E0D1520682946401CFA
:1056400020603046FDF7BCFA642007F013FBF4E756
:1056500034040040C8000020001C02400F4810B570
:105660000D4901600321416000214FF41022816047
:10567000C0E903124FF4001242610176417681764F
:10568000C17601774177FCF786FD002803D0BDE89D
:105690001040FCF70EB910BD006400401827002030
:1056A0000F4810B50D4901600321416000214FF4FE
:1056B00010228160C0E903124FF4001242610176AA
:1056C00041768176C17601774177FCF764FD002849
:1056D00003D0BDE81040FCF7ECB810BD00680040F6
:1056E000402700201D4808B5016841F48001016091
:1056F000016801F480010091016841F4001101602A
:105700000068002200F40010009005210C20FDF735
:105710008DFD0C20FDF77CFD002205213920FDF7D1
:1057200085FD3920FDF774FD002205213A20FDF7A3
:105730007DFD3A20FDF76CFD002205213B20FDF7A1
:1057400075FD3B20FDF764FD002205214520FDF796
:105750006DFDBDE808404520FDF75ABD30380240D8
:1057600010B5B8B01C222C496846FAF7D8FE0021C3
:10577000684606F056F9294C27491C2220601C3146
:1057800007A8FAF7CCFE002107A806F04AF922493B
:1057900060601C2238310EA8FAF7C1FE00210EA865
:1057A00006F03FF91C49A0601C22543115A8FAF7F5
:1057B000B6FE002115A806F034F91749E0601C2256
:1057C00070311CA8FAF7ABFE00211CA806F029F9DD
:1057D000114920611C228C3123A8FAF7A0FE002178
:1057E00023A806F01EF90C4960611C22A8312AA8E2
:1057F000FAF795FE00212AA806F013F90649A061E0
:105800001C22C43131A8FAF78AFE002131A806F023
:1058100008F9E06138B010BD68E900085C010020BB
:105820002DE9F04F87B014216846FAF7D4FE6E4890
:105830000026016841F002010160016801F00201E7
:105840000591016841F040010160016801F04001EB
:105850000591016841F001010160016801F0010159
:105860000591016841F008010160016801F008013B
:105870000591016841F004010160016801F0040133
:105880000591016841F480710160016801F4807143
:105890000591016841F080010160016801F080011B
:1058A0000591016841F020010160016801F02001CB
:1058B0000591016841F0100101600068012200F0CB
:1058C0001000059040214948FDF782F9DFF820A13A
:1058D0004FF4E058002241465046FDF779F9012285
:1058E000DFF810B1570339465846FDF771F94FF408
:1058F0008049012249465846FDF76AF901221021E4
:105900003D48FDF765F9012211463C48FDF760F975
:1059100001244020CDE90004022569463348CDE941
:105920000245FDF755F80097CDE902461127694673
:1059300058460197FDF74CF8CDE90246CDE90097AE
:1059400069465846FDF744F80320CDE90250CDE9F9
:10595000008469465046FDF73BF809204FF40416D1
:10596000CDE90006694602942048FDF731F8102081
:10597000CDE9000469462048CDE90245FDF728F845
:105980003020CDE90006694602941D48FDF720F855
:105990000094694619480194CDE90245FDF718F8CD
:1059A000002205210620FDF741FC0620FDF730FC12
:1059B000002205210920FDF739FC0920FDF728FC0C
:1059C000002205210A20FDF731FC0A20FDF720FC0A
:1059D000002205211720FDF729FC1720FDF718FCF0
:1059E00007B0BDE8F08F00003038024000180240D8
:1059F000001C02400010024000000240000402406F
:105A0000000802400D4810B50B4901600C49416087
:105A100000214FF480428160C0E90312416181613D
:105A2000C1610162FDF7E0F8002803D0BDE8104035
:105A3000FBF73FBF10BD0000005C0040682700205E
:105A4000801A0600104810B50E4901604FF48271AB
:105A50004160002102228160C0E9031201224261FB
:105A6000520282613822C0E90721416281620A2123
:105A7000C162FEF76BFB002803D0BDE81040FBF7C6
:105A800018BF10BD00300140BC27002010B588B001
:105A90001C216846FAF79FFD144813490024C0E909
:105AA000001441F28731C0E9024104618461FEF7CC
:105AB00065FD08B1FBF7FDFE0C48FFF780F808B163
:105AC000FBF7F7FE6020CDE900040294002269464E
:105AD00006480494FFF70DF808B1FBF7EAFE034807
